{
  "_format": "hh-sol-artifact-1",
  "contractName": "Reciever",
  "sourceName": "contracts/Reciever.sol",
  "abi": [
    {
      "inputs": [
        {
          "internalType": "uint32",
          "name": "_originDomain",
          "type": "uint32"
        },
        {
          "internalType": "address",
          "name": "_source",
          "type": "address"
        },
        {
          "internalType": "address",
          "name": "_connext",
          "type": "address"
        }
      ],
      "stateMutability": "nonpayable",
      "type": "constructor"
    },
    {
      "inputs": [],
      "name": "connext",
      "outputs": [
        {
          "internalType": "address",
          "name": "",
          "type": "address"
        }
      ],
      "stateMutability": "view",
      "type": "function"
    },
    {
      "inputs": [],
      "name": "greeting",
      "outputs": [
        {
          "internalType": "string",
          "name": "",
          "type": "string"
        }
      ],
      "stateMutability": "view",
      "type": "function"
    },
    {
      "inputs": [],
      "name": "originDomain",
      "outputs": [
        {
          "internalType": "uint32",
          "name": "",
          "type": "uint32"
        }
      ],
      "stateMutability": "view",
      "type": "function"
    },
    {
      "inputs": [],
      "name": "source",
      "outputs": [
        {
          "internalType": "address",
          "name": "",
          "type": "address"
        }
      ],
      "stateMutability": "view",
      "type": "function"
    },
    {
      "inputs": [
        {
          "internalType": "bytes32",
          "name": "_transferId",
          "type": "bytes32"
        },
        {
          "internalType": "uint256",
          "name": "_amount",
          "type": "uint256"
        },
        {
          "internalType": "address",
          "name": "_asset",
          "type": "address"
        },
        {
          "internalType": "address",
          "name": "_originSender",
          "type": "address"
        },
        {
          "internalType": "uint32",
          "name": "_origin",
          "type": "uint32"
        },
        {
          "internalType": "bytes",
          "name": "_callData",
          "type": "bytes"
        }
      ],
      "name": "xReceive",
      "outputs": [
        {
          "internalType": "bytes",
          "name": "",
          "type": "bytes"
        }
      ],
      "stateMutability": "nonpayable",
      "type": "function"
    }
  ],
  "bytecode": "0x60e060405234801561001057600080fd5b506040516107ed3803806107ed83398101604081905261002f9161006d565b63ffffffff90921660a0526001600160a01b0390811660c052166080526100bb565b80516001600160a01b038116811461006857600080fd5b919050565b60008060006060848603121561008257600080fd5b835163ffffffff8116811461009657600080fd5b92506100a460208501610051565b91506100b260408501610051565b90509250925092565b60805160a05160c0516106f16100fc60003960008181606101526101f501526000818160a501526101bf01526000818160e1015261023b01526106f16000f3fe608060405234801561001057600080fd5b50600436106100575760003560e01c806367e828bf1461005c578063cee85d7e146100a0578063de4b0548146100dc578063ef690cc014610103578063fd614f4114610118575b600080fd5b6100837f000000000000000000000000000000000000000000000000000000000000000081565b6040516001600160a01b0390911681526020015b60405180910390f35b6100c77f000000000000000000000000000000000000000000000000000000000000000081565b60405163ffffffff9091168152602001610097565b6100837f000000000000000000000000000000000000000000000000000000000000000081565b61010b61012b565b6040516100979190610387565b61010b61012636600461042c565b6101b9565b60008054610138906104fb565b80601f0160208091040260200160405190810160405280929190818152602001828054610164906104fb565b80156101b15780601f10610186576101008083540402835291602001916101b1565b820191906000526020600020905b81548152906001019060200180831161019457829003601f168201915b505050505081565b606083837f000000000000000000000000000000000000000000000000000000000000000063ffffffff168163ffffffff1614801561022957507f00000000000000000000000000000000000000000000000000000000000000006001600160a01b0316826001600160a01b0316145b801561025d5750336001600160a01b037f000000000000000000000000000000000000000000000000000000000000000016145b6102f95760405162461bcd60e51b815260206004820152606060248201527f4578706563746564206f726967696e616c2063616c6c657220746f206265207360448201527f6f7572636520636f6e7472616374206f6e206f726967696e20646f6d61696e2060648201527f616e64207468697320746f2062652063616c6c656420627920436f6e6e657874608482015260a40160405180910390fd5b60008480602001905181019061030f9190610535565b905061031a81610327565b5050509695505050505050565b600061033382826105fb565b5050565b60005b8381101561035257818101518382015260200161033a565b50506000910152565b60008151808452610373816020860160208601610337565b601f01601f19169290920160200192915050565b60208152600061039a602083018461035b565b9392505050565b80356001600160a01b03811681146103b857600080fd5b919050565b634e487b7160e01b600052604160045260246000fd5b604051601f8201601f1916810167ffffffffffffffff811182821017156103fc576103fc6103bd565b604052919050565b600067ffffffffffffffff82111561041e5761041e6103bd565b50601f01601f191660200190565b60008060008060008060c0878903121561044557600080fd5b863595506020870135945061045c604088016103a1565b935061046a606088016103a1565b9250608087013563ffffffff8116811461048357600080fd5b915060a087013567ffffffffffffffff81111561049f57600080fd5b8701601f810189136104b057600080fd5b80356104c36104be82610404565b6103d3565b8181528a60208385010111156104d857600080fd5b816020840160208301376000602083830101528093505050509295509295509295565b600181811c9082168061050f57607f821691505b60208210810361052f57634e487b7160e01b600052602260045260246000fd5b50919050565b60006020828403121561054757600080fd5b815167ffffffffffffffff81111561055e57600080fd5b8201601f8101841361056f57600080fd5b805161057d6104be82610404565b81815285602083850101111561059257600080fd5b6105a3826020830160208601610337565b95945050505050565b601f8211156105f657600081815260208120601f850160051c810160208610156105d35750805b601f850160051c820191505b818110156105f2578281556001016105df565b5050505b505050565b815167ffffffffffffffff811115610615576106156103bd565b6106298161062384546104fb565b846105ac565b602080601f83116001811461065e57600084156106465750858301515b600019600386901b1c1916600185901b1785556105f2565b600085815260208120601f198616915b8281101561068d5788860151825594840194600190910190840161066e565b50858210156106ab5787850151600019600388901b60f8161c191681555b5050505050600190811b0190555056fea2646970667358221220b97636498444f15bc5de84a954b478fbd59182cd7b954e3e7da1cfcc9d02c5da64736f6c63430008110033",
  "linkReferences": {},
  "deployedLinkReferences": {}
}