{
  "_format": "hh-sol-artifact-1",
  "contractName": "BulkSwap",
  "sourceName": "contracts/BulkSwap.sol",
  "abi": [
    {
      "inputs": [
        {
          "internalType": "contract IConnext",
          "name": "_connext",
          "type": "address"
        },
        {
          "internalType": "contract ISwapRouter",
          "name": "_swapRouter",
          "type": "address"
        },
        {
          "internalType": "address payable",
          "name": "_ops",
          "type": "address"
        },
        {
          "internalType": "address",
          "name": "chainLink",
          "type": "address"
        }
      ],
      "stateMutability": "nonpayable",
      "type": "constructor"
    },
    {
      "anonymous": false,
      "inputs": [
        {
          "indexed": true,
          "internalType": "uint256",
          "name": "DepositId",
          "type": "uint256"
        },
        {
          "indexed": true,
          "internalType": "string",
          "name": "actionType",
          "type": "string"
        },
        {
          "indexed": false,
          "internalType": "bool",
          "name": "isActive",
          "type": "bool"
        },
        {
          "indexed": true,
          "internalType": "address",
          "name": "author",
          "type": "address"
        },
        {
          "indexed": false,
          "internalType": "uint256",
          "name": "timestamp",
          "type": "uint256"
        }
      ],
      "name": "Action",
      "type": "event"
    },
    {
      "stateMutability": "payable",
      "type": "fallback"
    },
    {
      "inputs": [
        {
          "internalType": "address",
          "name": "",
          "type": "address"
        },
        {
          "internalType": "uint256",
          "name": "",
          "type": "uint256"
        }
      ],
      "name": "DepositsOf",
      "outputs": [
        {
          "internalType": "uint256",
          "name": "",
          "type": "uint256"
        }
      ],
      "stateMutability": "view",
      "type": "function"
    },
    {
      "inputs": [],
      "name": "WETH",
      "outputs": [
        {
          "internalType": "address",
          "name": "",
          "type": "address"
        }
      ],
      "stateMutability": "view",
      "type": "function"
    },
    {
      "inputs": [],
      "name": "activeDepositCounter",
      "outputs": [
        {
          "internalType": "uint256",
          "name": "",
          "type": "uint256"
        }
      ],
      "stateMutability": "view",
      "type": "function"
    },
    {
      "inputs": [
        {
          "internalType": "uint256",
          "name": "",
          "type": "uint256"
        }
      ],
      "name": "authorOf",
      "outputs": [
        {
          "internalType": "address",
          "name": "",
          "type": "address"
        }
      ],
      "stateMutability": "view",
      "type": "function"
    },
    {
      "inputs": [],
      "name": "connext",
      "outputs": [
        {
          "internalType": "contract IConnext",
          "name": "",
          "type": "address"
        }
      ],
      "stateMutability": "view",
      "type": "function"
    },
    {
      "inputs": [
        {
          "internalType": "address",
          "name": "_from",
          "type": "address"
        },
        {
          "internalType": "address",
          "name": "_to",
          "type": "address"
        },
        {
          "internalType": "uint256",
          "name": "_amount",
          "type": "uint256"
        },
        {
          "internalType": "address",
          "name": "_fromToken",
          "type": "address"
        },
        {
          "internalType": "address",
          "name": "_toToken",
          "type": "address"
        },
        {
          "internalType": "uint256",
          "name": "_toChain",
          "type": "uint256"
        }
      ],
      "name": "createDeposit",
      "outputs": [
        {
          "internalType": "bool",
          "name": "",
          "type": "bool"
        }
      ],
      "stateMutability": "nonpayable",
      "type": "function"
    },
    {
      "inputs": [],
      "name": "dedicatedMsgSender",
      "outputs": [
        {
          "internalType": "address",
          "name": "",
          "type": "address"
        }
      ],
      "stateMutability": "view",
      "type": "function"
    },
    {
      "inputs": [
        {
          "internalType": "uint256",
          "name": "DepositId",
          "type": "uint256"
        },
        {
          "internalType": "address",
          "name": "_from",
          "type": "address"
        }
      ],
      "name": "deleteDeposit",
      "outputs": [
        {
          "internalType": "bool",
          "name": "",
          "type": "bool"
        }
      ],
      "stateMutability": "nonpayable",
      "type": "function"
    },
    {
      "inputs": [
        {
          "internalType": "address",
          "name": "_from",
          "type": "address"
        },
        {
          "internalType": "address",
          "name": "_to",
          "type": "address"
        },
        {
          "internalType": "uint256[]",
          "name": "_amounts",
          "type": "uint256[]"
        },
        {
          "internalType": "address",
          "name": "_fromToken",
          "type": "address"
        },
        {
          "internalType": "address[]",
          "name": "_toTokens",
          "type": "address[]"
        },
        {
          "internalType": "uint256",
          "name": "_toChain",
          "type": "uint256"
        },
        {
          "internalType": "uint32",
          "name": "_destinationDomain",
          "type": "uint32"
        },
        {
          "internalType": "uint256",
          "name": "relayerFee",
          "type": "uint256"
        }
      ],
      "name": "executeMultipleOrderToMany",
      "outputs": [],
      "stateMutability": "payable",
      "type": "function"
    },
    {
      "inputs": [
        {
          "internalType": "address",
          "name": "_from",
          "type": "address"
        },
        {
          "internalType": "address",
          "name": "_to",
          "type": "address"
        },
        {
          "internalType": "uint256[]",
          "name": "_amounts",
          "type": "uint256[]"
        },
        {
          "internalType": "address[]",
          "name": "_fromTokens",
          "type": "address[]"
        },
        {
          "internalType": "address",
          "name": "_toToken",
          "type": "address"
        },
        {
          "internalType": "uint256",
          "name": "_toChain",
          "type": "uint256"
        },
        {
          "internalType": "uint32",
          "name": "_destinationDomain",
          "type": "uint32"
        },
        {
          "internalType": "uint256",
          "name": "relayerFee",
          "type": "uint256"
        }
      ],
      "name": "executeMultipleOrderToOne",
      "outputs": [],
      "stateMutability": "payable",
      "type": "function"
    },
    {
      "inputs": [
        {
          "internalType": "address",
          "name": "_from",
          "type": "address"
        },
        {
          "internalType": "address",
          "name": "_to",
          "type": "address"
        },
        {
          "internalType": "uint256",
          "name": "_amount",
          "type": "uint256"
        },
        {
          "internalType": "address",
          "name": "_fromToken",
          "type": "address"
        },
        {
          "internalType": "address",
          "name": "_toToken",
          "type": "address"
        },
        {
          "internalType": "uint256",
          "name": "_toChain",
          "type": "uint256"
        },
        {
          "internalType": "uint32",
          "name": "destinationDomain",
          "type": "uint32"
        },
        {
          "internalType": "uint256",
          "name": "relayerFee",
          "type": "uint256"
        }
      ],
      "name": "executeOrder",
      "outputs": [],
      "stateMutability": "payable",
      "type": "function"
    },
    {
      "inputs": [],
      "name": "fundsOwner",
      "outputs": [
        {
          "internalType": "address",
          "name": "",
          "type": "address"
        }
      ],
      "stateMutability": "view",
      "type": "function"
    },
    {
      "inputs": [],
      "name": "getDeletedDeposit",
      "outputs": [
        {
          "components": [
            {
              "internalType": "uint256",
              "name": "DepositId",
              "type": "uint256"
            },
            {
              "internalType": "address",
              "name": "from",
              "type": "address"
            },
            {
              "internalType": "address",
              "name": "to",
              "type": "address"
            },
            {
              "internalType": "uint256",
              "name": "amount",
              "type": "uint256"
            },
            {
              "internalType": "address",
              "name": "fromToken",
              "type": "address"
            },
            {
              "internalType": "address",
              "name": "toToken",
              "type": "address"
            },
            {
              "internalType": "uint256",
              "name": "toChain",
              "type": "uint256"
            },
            {
              "internalType": "bool",
              "name": "isActive",
              "type": "bool"
            },
            {
              "internalType": "uint256",
              "name": "created",
              "type": "uint256"
            },
            {
              "internalType": "uint256",
              "name": "updated",
              "type": "uint256"
            }
          ],
          "internalType": "struct BulkSwap.DepositStruct[]",
          "name": "",
          "type": "tuple[]"
        }
      ],
      "stateMutability": "view",
      "type": "function"
    },
    {
      "inputs": [],
      "name": "getDeposits",
      "outputs": [
        {
          "components": [
            {
              "internalType": "uint256",
              "name": "DepositId",
              "type": "uint256"
            },
            {
              "internalType": "address",
              "name": "from",
              "type": "address"
            },
            {
              "internalType": "address",
              "name": "to",
              "type": "address"
            },
            {
              "internalType": "uint256",
              "name": "amount",
              "type": "uint256"
            },
            {
              "internalType": "address",
              "name": "fromToken",
              "type": "address"
            },
            {
              "internalType": "address",
              "name": "toToken",
              "type": "address"
            },
            {
              "internalType": "uint256",
              "name": "toChain",
              "type": "uint256"
            },
            {
              "internalType": "bool",
              "name": "isActive",
              "type": "bool"
            },
            {
              "internalType": "uint256",
              "name": "created",
              "type": "uint256"
            },
            {
              "internalType": "uint256",
              "name": "updated",
              "type": "uint256"
            }
          ],
          "internalType": "struct BulkSwap.DepositStruct[]",
          "name": "",
          "type": "tuple[]"
        }
      ],
      "stateMutability": "view",
      "type": "function"
    },
    {
      "inputs": [],
      "name": "getLatestPrice",
      "outputs": [
        {
          "internalType": "int256",
          "name": "",
          "type": "int256"
        }
      ],
      "stateMutability": "view",
      "type": "function"
    },
    {
      "inputs": [],
      "name": "inactiveDepositCounter",
      "outputs": [
        {
          "internalType": "uint256",
          "name": "",
          "type": "uint256"
        }
      ],
      "stateMutability": "view",
      "type": "function"
    },
    {
      "inputs": [],
      "name": "ops",
      "outputs": [
        {
          "internalType": "contract IOps",
          "name": "",
          "type": "address"
        }
      ],
      "stateMutability": "view",
      "type": "function"
    },
    {
      "inputs": [],
      "name": "out",
      "outputs": [
        {
          "internalType": "uint256",
          "name": "",
          "type": "uint256"
        }
      ],
      "stateMutability": "view",
      "type": "function"
    },
    {
      "inputs": [],
      "name": "owner",
      "outputs": [
        {
          "internalType": "address",
          "name": "",
          "type": "address"
        }
      ],
      "stateMutability": "view",
      "type": "function"
    },
    {
      "inputs": [],
      "name": "poolFee",
      "outputs": [
        {
          "internalType": "uint24",
          "name": "",
          "type": "uint24"
        }
      ],
      "stateMutability": "view",
      "type": "function"
    },
    {
      "inputs": [
        {
          "internalType": "uint256",
          "name": "DepositId",
          "type": "uint256"
        }
      ],
      "name": "showDeposit",
      "outputs": [
        {
          "components": [
            {
              "internalType": "uint256",
              "name": "DepositId",
              "type": "uint256"
            },
            {
              "internalType": "address",
              "name": "from",
              "type": "address"
            },
            {
              "internalType": "address",
              "name": "to",
              "type": "address"
            },
            {
              "internalType": "uint256",
              "name": "amount",
              "type": "uint256"
            },
            {
              "internalType": "address",
              "name": "fromToken",
              "type": "address"
            },
            {
              "internalType": "address",
              "name": "toToken",
              "type": "address"
            },
            {
              "internalType": "uint256",
              "name": "toChain",
              "type": "uint256"
            },
            {
              "internalType": "bool",
              "name": "isActive",
              "type": "bool"
            },
            {
              "internalType": "uint256",
              "name": "created",
              "type": "uint256"
            },
            {
              "internalType": "uint256",
              "name": "updated",
              "type": "uint256"
            }
          ],
          "internalType": "struct BulkSwap.DepositStruct",
          "name": "",
          "type": "tuple"
        }
      ],
      "stateMutability": "view",
      "type": "function"
    },
    {
      "inputs": [
        {
          "internalType": "address",
          "name": "_user",
          "type": "address"
        }
      ],
      "name": "showDepositsOfUser",
      "outputs": [
        {
          "internalType": "uint256[]",
          "name": "",
          "type": "uint256[]"
        }
      ],
      "stateMutability": "view",
      "type": "function"
    },
    {
      "inputs": [
        {
          "internalType": "address",
          "name": "_token",
          "type": "address"
        },
        {
          "internalType": "uint256",
          "name": "amountIn",
          "type": "uint256"
        }
      ],
      "name": "swapExactInputSingle",
      "outputs": [
        {
          "internalType": "uint256",
          "name": "amountOut",
          "type": "uint256"
        }
      ],
      "stateMutability": "nonpayable",
      "type": "function"
    },
    {
      "inputs": [],
      "name": "swapRouter",
      "outputs": [
        {
          "internalType": "contract ISwapRouter",
          "name": "",
          "type": "address"
        }
      ],
      "stateMutability": "view",
      "type": "function"
    },
    {
      "inputs": [],
      "name": "taskTreasury",
      "outputs": [
        {
          "internalType": "contract ITaskTreasuryUpgradable",
          "name": "",
          "type": "address"
        }
      ],
      "stateMutability": "view",
      "type": "function"
    },
    {
      "inputs": [
        {
          "internalType": "uint256",
          "name": "_amount",
          "type": "uint256"
        },
        {
          "internalType": "address",
          "name": "_token",
          "type": "address"
        }
      ],
      "name": "withdrawFunds",
      "outputs": [],
      "stateMutability": "nonpayable",
      "type": "function"
    },
    {
      "inputs": [
        {
          "internalType": "address",
          "name": "recipient",
          "type": "address"
        },
        {
          "internalType": "uint32",
          "name": "destinationDomain",
          "type": "uint32"
        },
        {
          "internalType": "address",
          "name": "tokenAddress",
          "type": "address"
        },
        {
          "internalType": "uint256",
          "name": "amount",
          "type": "uint256"
        },
        {
          "internalType": "uint256",
          "name": "slippage",
          "type": "uint256"
        },
        {
          "internalType": "uint256",
          "name": "relayerFee",
          "type": "uint256"
        }
      ],
      "name": "xTransfer",
      "outputs": [],
      "stateMutability": "payable",
      "type": "function"
    },
    {
      "stateMutability": "payable",
      "type": "receive"
    }
  ],
  "bytecode": "0x6101606040526000600355600060045560006005553480156200002157600080fd5b506040516200233d3803806200233d83398101604081905262000044916200022d565b81338130816001600160a01b03166080816001600160a01b031681525050816001600160a01b031663573ea5756040518163ffffffff1660e01b8152600401602060405180830381865afa158015620000a1573d6000803e3d6000fd5b505050506040513d601f19601f82011682018060405250810190620000c7919062000295565b6001600160a01b0390811660c0526040516337b6269f60e21b8152908216600482015273c815db16d4be6ddf2685c201937905abf338f5d79063ded89a7c906024016040805180830381865afa15801562000126573d6000803e3d6000fd5b505050506040513d601f19601f820116820180604052508101906200014c9190620002bc565b506001600160a01b0390811660a05283811660e0526080516040805163e60a321360e01b8152905191909216935063e60a3213925060048083019260209291908290030181865afa158015620001a6573d6000803e3d6000fd5b505050506040513d601f19601f82011682018060405250810190620001cc919062000295565b6001600160a01b03908116610100529586166101205250509183166101405250600280546001600160a01b0319908116331790915560018054929093169116179055620002ff565b6001600160a01b03811681146200022a57600080fd5b50565b600080600080608085870312156200024457600080fd5b8451620002518162000214565b6020860151909450620002648162000214565b6040860151909350620002778162000214565b60608601519092506200028a8162000214565b939692955090935050565b600060208284031215620002a857600080fd5b8151620002b58162000214565b9392505050565b60008060408385031215620002d057600080fd5b8251620002dd8162000214565b60208401519092508015158114620002f457600080fd5b809150509250929050565b60805160a05160c05160e051610100516101205161014051611fb5620003886000396000818161042e01528181611398015261147401526000818161048201528181610d9f0152610e740152600081816104b60152610b1401526000818161027701528181610a4d0152610add015260005050600061022b015260006104ea0152611fb56000f3fe60806040526004361061018a5760003560e01c80638e15f473116100e0578063de4b054811610084578063e76575c011610061578063e76575c01461050c578063f040976c14610539578063f75e0e3c14610559578063fc17c8fa1461056c57005b8063de4b054814610470578063e60a3213146104a4578063e70abe92146104d857005b8063ad5c4648116100bd578063ad5c4648146103de578063b2a1449b14610406578063c31c9c071461041c578063c75e9c371461045057005b80638e15f473146103895780638ee63af81461039e578063a26056fc146103b157005b806356a370eb11610147578063744bfe6111610124578063744bfe61146103215780637c007bd7146103415780638900d7be146103545780638da5cb5b1461036957005b806356a370eb14610299578063571733ab146102c95780636b149d87146102ff57005b806256d13414610193578063089fe6aa146101c65780631f2188d5146101f057806323cf8f9e1461020357806328f150eb1461021957806346ee3c591461026557005b3661019157005b005b34801561019f57600080fd5b506101b36101ae366004611933565b610582565b6040519081526020015b60405180910390f35b3480156101d257600080fd5b506101dc6101f481565b60405162ffffff90911681526020016101bd565b6101916101fe3660046119bd565b6105b3565b34801561020f57600080fd5b506101b360045481565b34801561022557600080fd5b5061024d7f000000000000000000000000000000000000000000000000000000000000000081565b6040516001600160a01b0390911681526020016101bd565b34801561027157600080fd5b5061024d7f000000000000000000000000000000000000000000000000000000000000000081565b3480156102a557600080fd5b506102b96102b4366004611a85565b61062b565b60405190151581526020016101bd565b3480156102d557600080fd5b5061024d6102e4366004611ab1565b6006602052600090815260409020546001600160a01b031681565b34801561030b57600080fd5b5061031461096b565b6040516101bd9190611b79565b34801561032d57600080fd5b5061019161033c366004611a85565b610a42565b61019161034f366004611bc8565b610b74565b34801561036057600080fd5b50610314610bdf565b34801561037557600080fd5b5060025461024d906001600160a01b031681565b34801561039557600080fd5b506101b3610cf9565b6101916103ac366004611c76565b610d88565b3480156103bd57600080fd5b506103d16103cc366004611ab1565b610eee565b6040516101bd9190611cd5565b3480156103ea57600080fd5b5061024d73b4fbf271143f4fbf7b91a5ded31805e42b2208d681565b34801561041257600080fd5b506101b360005481565b34801561042857600080fd5b5061024d7f000000000000000000000000000000000000000000000000000000000000000081565b34801561045c57600080fd5b506102b961046b366004611ce4565b610fff565b34801561047c57600080fd5b5061024d7f000000000000000000000000000000000000000000000000000000000000000081565b3480156104b057600080fd5b5061024d7f000000000000000000000000000000000000000000000000000000000000000081565b3480156104e457600080fd5b5061024d7f000000000000000000000000000000000000000000000000000000000000000081565b34801561051857600080fd5b5061052c610527366004611d4a565b611324565b6040516101bd9190611d6c565b34801561054557600080fd5b506101b3610554366004611933565b611390565b610191610567366004611da4565b6114ec565b34801561057857600080fd5b506101b360035481565b6007602052816000526040600020818154811061059e57600080fd5b90600052602060002001600091509150505481565b60005b8781101561061e5761060c8b8b8b8b858181106105d5576105d5611e26565b905060200201358a8a8a878181106105ef576105ef611e26565b90506020020160208101906106049190611d4a565b8989896114ec565b8061061681611e52565b9150506105b6565b5050505050505050505050565b6000828152600660205260408120546001600160a01b0383811691161461068f5760405162461bcd60e51b8152602060048201526013602482015272556e617574686f72697a656420656e7469747960681b60448201526064015b60405180910390fd5b60005b6008548110156108c45783600882815481106106b0576106b0611e26565b90600052602060002090600a020160000154036108b2576000600882815481106106dc576106dc611e26565b90600052602060002090600a020160070160006101000a81548160ff021916908315150217905550426008828154811061071857610718611e26565b90600052602060002090600a02016009018190555060096008828154811061074257610742611e26565b6000918252602080832084546001808201875595855291909320600a9283029093018054929091029092019081558183015492810180546001600160a01b039485166001600160a01b031991821617909155600280840154908301805491861691831691909117905560038084015490830155600480840154908301805491861691831691909117905560058084015490830180549190951691161790925560068082015490830155600780820154908301805460ff191660ff909216151591909117905560088082015481840155600991820154919092015580548290811061082e5761082e611e26565b60009182526020808320600a9092029091018281556001810180546001600160a01b031990811690915560028201805482169055600382018490556004820180548216905560058201805482169055600680830185905560078301805460ff1916905560088301859055600990920184905587845291526040909120805490911690555b806108bc81611e52565b915050610692565b506108cf82846116b4565b600480549060006108df83611e52565b9091555050600380549060006108f483611e6b565b90915550506040516e11195c1bdcda5d0811115311551151608a1b81526001600160a01b03831690600f0160408051918290038220600083524260208401529186917fa5a5bd98656058fc95e51c484e0ff0e44860d2f24b8b3be493e84bf30af1efb7910160405180910390a45060015b92915050565b60606008805480602002602001604051908101604052809291908181526020016000905b82821015610a395760008481526020908190206040805161014081018252600a8602909201805483526001808201546001600160a01b0390811685870152600283015481169385019390935260038201546060850152600482015483166080850152600582015490921660a0840152600681015460c0840152600781015460ff16151560e0840152600881015461010084015260090154610120830152908352909201910161098f565b50505050905090565b336001600160a01b037f00000000000000000000000000000000000000000000000000000000000000001614610ac65760405162461bcd60e51b815260206004820152602360248201527f4f6e6c792066756e6473206f776e65722063616e2077697468647261772066756044820152626e647360e81b6064820152608401610686565b604051631c20fadd60e01b81526001600160a01b037f0000000000000000000000000000000000000000000000000000000000000000811660048301528281166024830152604482018490527f00000000000000000000000000000000000000000000000000000000000000001690631c20fadd90606401600060405180830381600087803b158015610b5857600080fd5b505af1158015610b6c573d6000803e3d6000fd5b505050505050565b60005b8781101561061e57610bcd8b8b8b8b85818110610b9657610b96611e26565b905060200201358a8a86818110610baf57610baf611e26565b9050602002016020810190610bc49190611d4a565b898989896114ec565b80610bd781611e52565b915050610b77565b6002546060906001600160a01b03163314610c325760405162461bcd60e51b81526020600482015260136024820152724f776e6572207265736572766564206f6e6c7960681b6044820152606401610686565b600980546040805160208084028201810190925282815292919060009084018215610a395760008481526020908190206040805161014081018252600a8602909201805483526001808201546001600160a01b0390811685870152600283015481169385019390935260038201546060850152600482015483166080850152600582015490921660a0840152600681015460c0840152600781015460ff16151560e0840152600881015461010084015260090154610120830152908352909201910161098f565b600080600080600080600160009054906101000a90046001600160a01b03166001600160a01b031663feaf968c6040518163ffffffff1660e01b815260040160a060405180830381865afa158015610d55573d6000803e3d6000fd5b505050506040513d601f19601f82011682018060405250810190610d799190611e9c565b50919998505050505050505050565b60405163095ea7b360e01b81526001600160a01b037f0000000000000000000000000000000000000000000000000000000000000000811660048301526024820185905285919082169063095ea7b3906044016020604051808303816000875af1158015610dfa573d6000803e3d6000fd5b505050506040513d601f19601f82011682018060405250810190610e1e9190611eec565b506040516345560b5d60e11b815263ffffffff871660048201526001600160a01b03888116602483015286811660448301523360648301526084820186905260a4820185905260e060c4830152600060e48301527f00000000000000000000000000000000000000000000000000000000000000001690638aac16ba9084906101040160206040518083038185885af1158015610ebf573d6000803e3d6000fd5b50505050506040513d601f19601f82011682018060405250810190610ee49190611f0e565b5050505050505050565b610ef661189e565b610efe61189e565b60005b600854811015610ff8578360088281548110610f1f57610f1f611e26565b90600052602060002090600a02016000015403610fe65760088181548110610f4957610f49611e26565b60009182526020918290206040805161014081018252600a9093029091018054835260018101546001600160a01b0390811694840194909452600281015484169183019190915260038101546060830152600481015483166080830152600581015490921660a0820152600682015460c0820152600782015460ff16151560e0820152600882015461010082015260099091015461012082015291505b80610ff081611e52565b915050610f01565b5092915050565b600580546000918261101083611e52565b909155505060058054600090815260066020908152604080832080546001600160a01b0319166001600160a01b038d1690811790915583526007825282209254835460018101855593835290822090920191909155600380549161107383611e52565b9091555050604080516101408101825260055481526001600160a01b03898116602083018181528a8316848601908152606085018b81528a8516608087019081528a861660a0880190815260c088018b8152600160e08a01818152426101008c018181526101208d019182526008805494850181556000529b517ff3f7a9fe364faab93b216da50a3214154f22a0a2b415b23a84c8169e8b636ee3600a9094029384015597517ff3f7a9fe364faab93b216da50a3214154f22a0a2b415b23a84c8169e8b636ee4830180546001600160a01b0319908116928d1692909217905596517ff3f7a9fe364faab93b216da50a3214154f22a0a2b415b23a84c8169e8b636ee5830180548916918c1691909117905594517ff3f7a9fe364faab93b216da50a3214154f22a0a2b415b23a84c8169e8b636ee682015592517ff3f7a9fe364faab93b216da50a3214154f22a0a2b415b23a84c8169e8b636ee7840180548716918a1691909117905590517ff3f7a9fe364faab93b216da50a3214154f22a0a2b415b23a84c8169e8b636ee88301805490951697169690961790925593517ff3f7a9fe364faab93b216da50a3214154f22a0a2b415b23a84c8169e8b636ee982015592517ff3f7a9fe364faab93b216da50a3214154f22a0a2b415b23a84c8169e8b636eea8401805460ff191691151591909117905592517ff3f7a9fe364faab93b216da50a3214154f22a0a2b415b23a84c8169e8b636eeb83015591517ff3f7a9fe364faab93b216da50a3214154f22a0a2b415b23a84c8169e8b636eec9091015590516e11195c1bdcda5d0810d49150551151608a1b8152600f016040805191829003822060055460018452426020850152909290917fa5a5bd98656058fc95e51c484e0ff0e44860d2f24b8b3be493e84bf30af1efb7910160405180910390a45060019695505050505050565b6001600160a01b03811660009081526007602090815260409182902080548351818402810184019094528084526060939283018282801561138457602002820191906000526020600020905b815481526020019060010190808311611370575b50505050509050919050565b60006113bd837f00000000000000000000000000000000000000000000000000000000000000008461179e565b60408051610100810182526001600160a01b03858116825273b4fbf271143f4fbf7b91a5ded31805e42b2208d6602083019081526101f48385019081523060608501908152426080860190815260a08601898152600060c0880181815260e08901918252985163414bf38960e01b8152885188166004820152955187166024870152935162ffffff1660448601529151851660648501525160848401525160a4830152935160c48201529251811660e484015290917f00000000000000000000000000000000000000000000000000000000000000009091169063414bf38990610104016020604051808303816000875af11580156114c0573d6000803e3d6000fd5b505050506040513d601f19601f820116820180604052508101906114e49190611f0e565b949350505050565b6000861161153c5760405162461bcd60e51b815260206004820152601d60248201527f416d6f756e74206d7573742062652067726561746572207468616e20300000006044820152606401610686565b836001600160a01b0316856001600160a01b0316036115a95760405162461bcd60e51b8152602060048201526024808201527f46726f6d20616e6420546f20746f6b656e73206d7573742062652064696666656044820152631c995b9d60e21b6064820152608401610686565b600083116115f95760405162461bcd60e51b815260206004820152601f60248201527f546f20636861696e206d7573742062652067726561746572207468616e2030006044820152606401610686565b8461012c6000611609838a611390565b905061162d8a8673b4fbf271143f4fbf7b91a5ded31805e42b2208d6848689610d88565b6040517f4465706f7369742043524541544544202620455845435554454400000000000081526001600160a01b038c1690601a016040805191829003822060055460018452426020850152909290917fa5a5bd98656058fc95e51c484e0ff0e44860d2f24b8b3be493e84bf30af1efb7910160405180910390a45050505050505050505050565b6001600160a01b03821660009081526007602052604090205481106116d857600080fd5b6001600160a01b038216600090815260076020526040902080546116fe90600190611f27565b8154811061170e5761170e611e26565b906000526020600020015460076000846001600160a01b03166001600160a01b03168152602001908152602001600020828154811061174f5761174f611e26565b60009182526020808320909101929092556001600160a01b038416815260079091526040902080548061178457611784611f3a565b600190038181906000526020600020016000905590555050565b604080516001600160a01b038481166024830152604480830185905283518084039091018152606490920183526020820180516001600160e01b031663095ea7b360e01b17905291516000928392908716916117fa9190611f50565b6000604051808303816000865af19150503d8060008114611837576040519150601f19603f3d011682016040523d82523d6000602084013e61183c565b606091505b50915091508180156118665750805115806118665750808060200190518101906118669190611eec565b6118975760405162461bcd60e51b8152602060048201526002602482015261534160f01b6044820152606401610686565b5050505050565b6040518061014001604052806000815260200160006001600160a01b0316815260200160006001600160a01b031681526020016000815260200160006001600160a01b0316815260200160006001600160a01b031681526020016000815260200160001515815260200160008152602001600081525090565b80356001600160a01b038116811461192e57600080fd5b919050565b6000806040838503121561194657600080fd5b61194f83611917565b946020939093013593505050565b60008083601f84011261196f57600080fd5b50813567ffffffffffffffff81111561198757600080fd5b6020830191508360208260051b85010111156119a257600080fd5b9250929050565b803563ffffffff8116811461192e57600080fd5b6000806000806000806000806000806101008b8d0312156119dd57600080fd5b6119e68b611917565b99506119f460208c01611917565b985060408b013567ffffffffffffffff80821115611a1157600080fd5b611a1d8e838f0161195d565b909a509850889150611a3160608e01611917565b975060808d0135915080821115611a4757600080fd5b50611a548d828e0161195d565b90965094505060a08b01359250611a6d60c08c016119a9565b915060e08b013590509295989b9194979a5092959850565b60008060408385031215611a9857600080fd5b82359150611aa860208401611917565b90509250929050565b600060208284031215611ac357600080fd5b5035919050565b805182526020810151611ae860208401826001600160a01b03169052565b506040810151611b0360408401826001600160a01b03169052565b50606081015160608301526080810151611b2860808401826001600160a01b03169052565b5060a0810151611b4360a08401826001600160a01b03169052565b5060c081015160c083015260e0810151611b6160e084018215159052565b50610100818101519083015261012090810151910152565b6020808252825182820181905260009190848201906040850190845b81811015611bbc57611ba8838551611aca565b928401926101409290920191600101611b95565b50909695505050505050565b6000806000806000806000806000806101008b8d031215611be857600080fd5b611bf18b611917565b9950611bff60208c01611917565b985060408b013567ffffffffffffffff80821115611c1c57600080fd5b611c288e838f0161195d565b909a50985060608d0135915080821115611c4157600080fd5b50611c4e8d828e0161195d565b9097509550611c61905060808c01611917565b935060a08b01359250611a6d60c08c016119a9565b60008060008060008060c08789031215611c8f57600080fd5b611c9887611917565b9550611ca6602088016119a9565b9450611cb460408801611917565b9350606087013592506080870135915060a087013590509295509295509295565b61014081016109658284611aca565b60008060008060008060c08789031215611cfd57600080fd5b611d0687611917565b9550611d1460208801611917565b945060408701359350611d2960608801611917565b9250611d3760808801611917565b915060a087013590509295509295509295565b600060208284031215611d5c57600080fd5b611d6582611917565b9392505050565b6020808252825182820181905260009190848201906040850190845b81811015611bbc57835183529284019291840191600101611d88565b600080600080600080600080610100898b031215611dc157600080fd5b611dca89611917565b9750611dd860208a01611917565b965060408901359550611ded60608a01611917565b9450611dfb60808a01611917565b935060a08901359250611e1060c08a016119a9565b915060e089013590509295985092959890939650565b634e487b7160e01b600052603260045260246000fd5b634e487b7160e01b600052601160045260246000fd5b600060018201611e6457611e64611e3c565b5060010190565b600081611e7a57611e7a611e3c565b506000190190565b805169ffffffffffffffffffff8116811461192e57600080fd5b600080600080600060a08688031215611eb457600080fd5b611ebd86611e82565b9450602086015193506040860151925060608601519150611ee060808701611e82565b90509295509295909350565b600060208284031215611efe57600080fd5b81518015158114611d6557600080fd5b600060208284031215611f2057600080fd5b5051919050565b8181038181111561096557610965611e3c565b634e487b7160e01b600052603160045260246000fd5b6000825160005b81811015611f715760208186018101518583015201611f57565b50600092019182525091905056fea2646970667358221220d2e99ff66017cd59bedb55d6a01e64edbf89bdffadf22f62edfc5badc4f6c32164736f6c63430008110033",
  "linkReferences": {},
  "deployedLinkReferences": {}
}