{
  "_format": "hh-sol-artifact-1",
  "contractName": "OneInchV5Connector",
  "sourceName": "contracts/OneInchV5Connector.sol",
  "abi": [
    {
      "inputs": [
        {
          "internalType": "address",
          "name": "_oneInchV5Router",
          "type": "address"
        }
      ],
      "stateMutability": "nonpayable",
      "type": "constructor"
    },
    {
      "inputs": [
        {
          "internalType": "address",
          "name": "tokenIn",
          "type": "address"
        },
        {
          "internalType": "address",
          "name": "tokenOut",
          "type": "address"
        },
        {
          "internalType": "uint256",
          "name": "amountIn",
          "type": "uint256"
        },
        {
          "internalType": "uint256",
          "name": "minAmountOut",
          "type": "uint256"
        },
        {
          "internalType": "bytes",
          "name": "data",
          "type": "bytes"
        }
      ],
      "name": "_swapOneInchV5",
      "outputs": [
        {
          "internalType": "uint256",
          "name": "amountOut",
          "type": "uint256"
        }
      ],
      "stateMutability": "nonpayable",
      "type": "function"
    }
  ],
  "bytecode": "0x60a060405234801561001057600080fd5b506040516106ce3803806106ce83398101604081905261002f91610040565b6001600160a01b0316608052610070565b60006020828403121561005257600080fd5b81516001600160a01b038116811461006957600080fd5b9392505050565b60805161063d6100916000396000818160d90152610160015261063d6000f3fe608060405234801561001057600080fd5b506004361061002b5760003560e01c8063f720c91214610030575b600080fd5b61004361003e366004610445565b610055565b60405190815260200160405180910390f35b6040516370a0823160e01b815230600482015260009081906001600160a01b038716906370a0823190602401602060405180830381865afa15801561009e573d6000803e3d6000fd5b505050506040513d601f19601f820116820180604052508101906100c2919061052b565b60405163095ea7b360e01b81526001600160a01b037f00000000000000000000000000000000000000000000000000000000000000008116600483015260248201889052919250889182169063095ea7b3906044016020604051808303816000875af1158015610136573d6000803e3d6000fd5b505050506040513d601f19601f8201168201806040525081019061015a9190610544565b506101b27f000000000000000000000000000000000000000000000000000000000000000085604051806040016040528060148152602001730c525390d217d58d57d4d5d05417d1905253115160621b815250610283565b506040516370a0823160e01b81523060048201526000906001600160a01b038916906370a0823190602401602060405180830381865afa1580156101fa573d6000803e3d6000fd5b505050506040513d601f19601f8201168201806040525081019061021e919061052b565b905061022a838261056d565b9350858410156102775760405162461bcd60e51b81526020600482015260136024820152720c525390d217d58d57d3525397d05353d55395606a1b60448201526064015b60405180910390fd5b50505095945050505050565b6060610292848460008561029a565b949350505050565b6060824710156102fb5760405162461bcd60e51b815260206004820152602660248201527f416464726573733a20696e73756666696369656e742062616c616e636520666f6044820152651c8818d85b1b60d21b606482015260840161026e565b600080866001600160a01b0316858760405161031791906105b8565b60006040518083038185875af1925050503d8060008114610354576040519150601f19603f3d011682016040523d82523d6000602084013e610359565b606091505b509150915061036a87838387610375565b979650505050505050565b606083156103e45782516000036103dd576001600160a01b0385163b6103dd5760405162461bcd60e51b815260206004820152601d60248201527f416464726573733a2063616c6c20746f206e6f6e2d636f6e7472616374000000604482015260640161026e565b5081610292565b61029283838151156103f95781518083602001fd5b8060405162461bcd60e51b815260040161026e91906105d4565b80356001600160a01b038116811461042a57600080fd5b919050565b634e487b7160e01b600052604160045260246000fd5b600080600080600060a0868803121561045d57600080fd5b61046686610413565b945061047460208701610413565b93506040860135925060608601359150608086013567ffffffffffffffff8082111561049f57600080fd5b818801915088601f8301126104b357600080fd5b8135818111156104c5576104c561042f565b604051601f8201601f19908116603f011681019083821181831017156104ed576104ed61042f565b816040528281528b602084870101111561050657600080fd5b8260208601602083013760006020848301015280955050505050509295509295909350565b60006020828403121561053d57600080fd5b5051919050565b60006020828403121561055657600080fd5b8151801515811461056657600080fd5b9392505050565b8181038181111561058e57634e487b7160e01b600052601160045260246000fd5b92915050565b60005b838110156105af578181015183820152602001610597565b50506000910152565b600082516105ca818460208701610594565b9190910192915050565b60208152600082518060208401526105f3816040850160208701610594565b601f01601f1916919091016040019291505056fea2646970667358221220ba49dc92166658c02b688c8ada45966a7ec85742beff52f4283ffb4914736b2264736f6c63430008110033",
  "linkReferences": {},
  "deployedLinkReferences": {}
}