{
  "_format": "hh-sol-artifact-1",
  "contractName": "AbSwapX",
  "sourceName": "contracts/AbSwapX.sol",
  "abi": [
    {
      "inputs": [
        {
          "internalType": "contract IConnext",
          "name": "_connext",
          "type": "address"
        },
        {
          "internalType": "contract ISwapRouter",
          "name": "_swapRouter",
          "type": "address"
        },
        {
          "internalType": "address payable",
          "name": "_ops",
          "type": "address"
        }
      ],
      "stateMutability": "nonpayable",
      "type": "constructor"
    },
    {
      "inputs": [
        {
          "internalType": "int256",
          "name": "",
          "type": "int256"
        },
        {
          "internalType": "int256",
          "name": "",
          "type": "int256"
        }
      ],
      "name": "CONDITION_NOT_MET",
      "type": "error"
    },
    {
      "anonymous": false,
      "inputs": [
        {
          "indexed": true,
          "internalType": "uint256",
          "name": "DepositId",
          "type": "uint256"
        },
        {
          "indexed": true,
          "internalType": "string",
          "name": "actionType",
          "type": "string"
        },
        {
          "indexed": false,
          "internalType": "bool",
          "name": "isActive",
          "type": "bool"
        },
        {
          "indexed": true,
          "internalType": "address",
          "name": "author",
          "type": "address"
        },
        {
          "indexed": false,
          "internalType": "uint256",
          "name": "timestamp",
          "type": "uint256"
        }
      ],
      "name": "Action",
      "type": "event"
    },
    {
      "stateMutability": "payable",
      "type": "fallback"
    },
    {
      "inputs": [
        {
          "internalType": "address",
          "name": "",
          "type": "address"
        },
        {
          "internalType": "uint256",
          "name": "",
          "type": "uint256"
        }
      ],
      "name": "DepositsOf",
      "outputs": [
        {
          "internalType": "uint256",
          "name": "",
          "type": "uint256"
        }
      ],
      "stateMutability": "view",
      "type": "function"
    },
    {
      "inputs": [],
      "name": "WETH",
      "outputs": [
        {
          "internalType": "address",
          "name": "",
          "type": "address"
        }
      ],
      "stateMutability": "view",
      "type": "function"
    },
    {
      "inputs": [],
      "name": "activeDepositCounter",
      "outputs": [
        {
          "internalType": "uint256",
          "name": "",
          "type": "uint256"
        }
      ],
      "stateMutability": "view",
      "type": "function"
    },
    {
      "inputs": [
        {
          "internalType": "uint256",
          "name": "",
          "type": "uint256"
        }
      ],
      "name": "authorOf",
      "outputs": [
        {
          "internalType": "address",
          "name": "",
          "type": "address"
        }
      ],
      "stateMutability": "view",
      "type": "function"
    },
    {
      "inputs": [
        {
          "internalType": "int256",
          "name": "_price",
          "type": "int256"
        }
      ],
      "name": "changePrice",
      "outputs": [],
      "stateMutability": "nonpayable",
      "type": "function"
    },
    {
      "inputs": [],
      "name": "connext",
      "outputs": [
        {
          "internalType": "contract IConnext",
          "name": "",
          "type": "address"
        }
      ],
      "stateMutability": "view",
      "type": "function"
    },
    {
      "inputs": [
        {
          "internalType": "address",
          "name": "_from",
          "type": "address"
        },
        {
          "internalType": "address",
          "name": "_to",
          "type": "address"
        },
        {
          "internalType": "uint256",
          "name": "_amount",
          "type": "uint256"
        },
        {
          "internalType": "int256",
          "name": "_price",
          "type": "int256"
        },
        {
          "internalType": "address",
          "name": "_fromToken",
          "type": "address"
        },
        {
          "internalType": "address",
          "name": "_toToken",
          "type": "address"
        },
        {
          "internalType": "uint256",
          "name": "_toChain",
          "type": "uint256"
        },
        {
          "internalType": "uint32",
          "name": "destinationDomain",
          "type": "uint32"
        },
        {
          "internalType": "uint256",
          "name": "relayerFee",
          "type": "uint256"
        },
        {
          "internalType": "address",
          "name": "_destinationContractAddress",
          "type": "address"
        }
      ],
      "name": "createDeposit",
      "outputs": [
        {
          "internalType": "bool",
          "name": "",
          "type": "bool"
        }
      ],
      "stateMutability": "payable",
      "type": "function"
    },
    {
      "inputs": [],
      "name": "dedicatedMsgSender",
      "outputs": [
        {
          "internalType": "address",
          "name": "",
          "type": "address"
        }
      ],
      "stateMutability": "view",
      "type": "function"
    },
    {
      "inputs": [
        {
          "internalType": "uint256",
          "name": "DepositId",
          "type": "uint256"
        },
        {
          "internalType": "address",
          "name": "_from",
          "type": "address"
        }
      ],
      "name": "deleteDeposit",
      "outputs": [
        {
          "internalType": "bool",
          "name": "",
          "type": "bool"
        }
      ],
      "stateMutability": "nonpayable",
      "type": "function"
    },
    {
      "inputs": [
        {
          "internalType": "address",
          "name": "_from",
          "type": "address"
        },
        {
          "internalType": "address",
          "name": "_to",
          "type": "address"
        },
        {
          "internalType": "uint256",
          "name": "_amount",
          "type": "uint256"
        },
        {
          "internalType": "int256",
          "name": "_price",
          "type": "int256"
        },
        {
          "internalType": "address",
          "name": "_fromToken",
          "type": "address"
        },
        {
          "internalType": "address",
          "name": "_toToken",
          "type": "address"
        },
        {
          "internalType": "uint256",
          "name": "_toChain",
          "type": "uint256"
        },
        {
          "internalType": "uint32",
          "name": "destinationDomain",
          "type": "uint32"
        },
        {
          "internalType": "uint256",
          "name": "relayerFee",
          "type": "uint256"
        },
        {
          "internalType": "address",
          "name": "_destinationContractAddress",
          "type": "address"
        }
      ],
      "name": "executeLimitOrder",
      "outputs": [],
      "stateMutability": "payable",
      "type": "function"
    },
    {
      "inputs": [
        {
          "internalType": "address",
          "name": "_from",
          "type": "address"
        },
        {
          "internalType": "address",
          "name": "_to",
          "type": "address"
        },
        {
          "internalType": "uint256[]",
          "name": "_amounts",
          "type": "uint256[]"
        },
        {
          "internalType": "address",
          "name": "_fromToken",
          "type": "address"
        },
        {
          "internalType": "address[]",
          "name": "_toTokens",
          "type": "address[]"
        },
        {
          "internalType": "uint256",
          "name": "_toChain",
          "type": "uint256"
        },
        {
          "internalType": "uint32",
          "name": "_destinationDomain",
          "type": "uint32"
        },
        {
          "internalType": "uint256",
          "name": "relayerFee",
          "type": "uint256"
        },
        {
          "internalType": "address",
          "name": "_destinationContractAddress",
          "type": "address"
        }
      ],
      "name": "executeMultipleOrderToMany",
      "outputs": [],
      "stateMutability": "payable",
      "type": "function"
    },
    {
      "inputs": [
        {
          "internalType": "address",
          "name": "_from",
          "type": "address"
        },
        {
          "internalType": "address",
          "name": "_to",
          "type": "address"
        },
        {
          "internalType": "uint256[]",
          "name": "_amounts",
          "type": "uint256[]"
        },
        {
          "internalType": "address[]",
          "name": "_fromTokens",
          "type": "address[]"
        },
        {
          "internalType": "address",
          "name": "_toToken",
          "type": "address"
        },
        {
          "internalType": "uint256",
          "name": "_toChain",
          "type": "uint256"
        },
        {
          "internalType": "uint32",
          "name": "_destinationDomain",
          "type": "uint32"
        },
        {
          "internalType": "uint256",
          "name": "relayerFee",
          "type": "uint256"
        },
        {
          "internalType": "address",
          "name": "_destinationContractAddress",
          "type": "address"
        }
      ],
      "name": "executeMultipleOrderToOne",
      "outputs": [],
      "stateMutability": "payable",
      "type": "function"
    },
    {
      "inputs": [
        {
          "internalType": "address",
          "name": "_from",
          "type": "address"
        },
        {
          "internalType": "address",
          "name": "_to",
          "type": "address"
        },
        {
          "internalType": "uint256",
          "name": "_amount",
          "type": "uint256"
        },
        {
          "internalType": "address",
          "name": "_fromToken",
          "type": "address"
        },
        {
          "internalType": "address",
          "name": "_toToken",
          "type": "address"
        },
        {
          "internalType": "uint256",
          "name": "_toChain",
          "type": "uint256"
        },
        {
          "internalType": "uint32",
          "name": "destinationDomain",
          "type": "uint32"
        },
        {
          "internalType": "uint256",
          "name": "relayerFee",
          "type": "uint256"
        },
        {
          "internalType": "address",
          "name": "_destinationContractAddress",
          "type": "address"
        }
      ],
      "name": "executeOrder",
      "outputs": [],
      "stateMutability": "payable",
      "type": "function"
    },
    {
      "inputs": [],
      "name": "fundsOwner",
      "outputs": [
        {
          "internalType": "address",
          "name": "",
          "type": "address"
        }
      ],
      "stateMutability": "view",
      "type": "function"
    },
    {
      "inputs": [],
      "name": "getDeletedDeposit",
      "outputs": [
        {
          "components": [
            {
              "internalType": "uint256",
              "name": "DepositId",
              "type": "uint256"
            },
            {
              "internalType": "address",
              "name": "from",
              "type": "address"
            },
            {
              "internalType": "address",
              "name": "to",
              "type": "address"
            },
            {
              "internalType": "uint256",
              "name": "amount",
              "type": "uint256"
            },
            {
              "internalType": "int256",
              "name": "price",
              "type": "int256"
            },
            {
              "internalType": "address",
              "name": "fromToken",
              "type": "address"
            },
            {
              "internalType": "address",
              "name": "toToken",
              "type": "address"
            },
            {
              "internalType": "uint256",
              "name": "toChain",
              "type": "uint256"
            },
            {
              "internalType": "bool",
              "name": "isActive",
              "type": "bool"
            },
            {
              "internalType": "uint256",
              "name": "created",
              "type": "uint256"
            },
            {
              "internalType": "uint256",
              "name": "updated",
              "type": "uint256"
            }
          ],
          "internalType": "struct AbSwapX.DepositStruct[]",
          "name": "",
          "type": "tuple[]"
        }
      ],
      "stateMutability": "view",
      "type": "function"
    },
    {
      "inputs": [],
      "name": "getDeposits",
      "outputs": [
        {
          "components": [
            {
              "internalType": "uint256",
              "name": "DepositId",
              "type": "uint256"
            },
            {
              "internalType": "address",
              "name": "from",
              "type": "address"
            },
            {
              "internalType": "address",
              "name": "to",
              "type": "address"
            },
            {
              "internalType": "uint256",
              "name": "amount",
              "type": "uint256"
            },
            {
              "internalType": "int256",
              "name": "price",
              "type": "int256"
            },
            {
              "internalType": "address",
              "name": "fromToken",
              "type": "address"
            },
            {
              "internalType": "address",
              "name": "toToken",
              "type": "address"
            },
            {
              "internalType": "uint256",
              "name": "toChain",
              "type": "uint256"
            },
            {
              "internalType": "bool",
              "name": "isActive",
              "type": "bool"
            },
            {
              "internalType": "uint256",
              "name": "created",
              "type": "uint256"
            },
            {
              "internalType": "uint256",
              "name": "updated",
              "type": "uint256"
            }
          ],
          "internalType": "struct AbSwapX.DepositStruct[]",
          "name": "",
          "type": "tuple[]"
        }
      ],
      "stateMutability": "view",
      "type": "function"
    },
    {
      "inputs": [],
      "name": "getLatestPrice",
      "outputs": [
        {
          "internalType": "int256",
          "name": "",
          "type": "int256"
        }
      ],
      "stateMutability": "view",
      "type": "function"
    },
    {
      "inputs": [],
      "name": "honeySwapRouter2",
      "outputs": [
        {
          "internalType": "contract IUniswapV2Router02",
          "name": "",
          "type": "address"
        }
      ],
      "stateMutability": "view",
      "type": "function"
    },
    {
      "inputs": [],
      "name": "inactiveDepositCounter",
      "outputs": [
        {
          "internalType": "uint256",
          "name": "",
          "type": "uint256"
        }
      ],
      "stateMutability": "view",
      "type": "function"
    },
    {
      "inputs": [],
      "name": "ops",
      "outputs": [
        {
          "internalType": "contract IOps",
          "name": "",
          "type": "address"
        }
      ],
      "stateMutability": "view",
      "type": "function"
    },
    {
      "inputs": [],
      "name": "out",
      "outputs": [
        {
          "internalType": "uint256",
          "name": "",
          "type": "uint256"
        }
      ],
      "stateMutability": "view",
      "type": "function"
    },
    {
      "inputs": [],
      "name": "owner",
      "outputs": [
        {
          "internalType": "address",
          "name": "",
          "type": "address"
        }
      ],
      "stateMutability": "view",
      "type": "function"
    },
    {
      "inputs": [],
      "name": "poolFee",
      "outputs": [
        {
          "internalType": "uint24",
          "name": "",
          "type": "uint24"
        }
      ],
      "stateMutability": "view",
      "type": "function"
    },
    {
      "inputs": [],
      "name": "price",
      "outputs": [
        {
          "internalType": "int256",
          "name": "",
          "type": "int256"
        }
      ],
      "stateMutability": "view",
      "type": "function"
    },
    {
      "inputs": [
        {
          "internalType": "address",
          "name": "_RouterAddress",
          "type": "address"
        }
      ],
      "name": "setHoneySwapRouter2",
      "outputs": [],
      "stateMutability": "nonpayable",
      "type": "function"
    },
    {
      "inputs": [
        {
          "internalType": "address",
          "name": "wethAddress",
          "type": "address"
        }
      ],
      "name": "setWethAddress",
      "outputs": [],
      "stateMutability": "nonpayable",
      "type": "function"
    },
    {
      "inputs": [
        {
          "internalType": "uint256",
          "name": "DepositId",
          "type": "uint256"
        }
      ],
      "name": "showDeposit",
      "outputs": [
        {
          "components": [
            {
              "internalType": "uint256",
              "name": "DepositId",
              "type": "uint256"
            },
            {
              "internalType": "address",
              "name": "from",
              "type": "address"
            },
            {
              "internalType": "address",
              "name": "to",
              "type": "address"
            },
            {
              "internalType": "uint256",
              "name": "amount",
              "type": "uint256"
            },
            {
              "internalType": "int256",
              "name": "price",
              "type": "int256"
            },
            {
              "internalType": "address",
              "name": "fromToken",
              "type": "address"
            },
            {
              "internalType": "address",
              "name": "toToken",
              "type": "address"
            },
            {
              "internalType": "uint256",
              "name": "toChain",
              "type": "uint256"
            },
            {
              "internalType": "bool",
              "name": "isActive",
              "type": "bool"
            },
            {
              "internalType": "uint256",
              "name": "created",
              "type": "uint256"
            },
            {
              "internalType": "uint256",
              "name": "updated",
              "type": "uint256"
            }
          ],
          "internalType": "struct AbSwapX.DepositStruct",
          "name": "",
          "type": "tuple"
        }
      ],
      "stateMutability": "view",
      "type": "function"
    },
    {
      "inputs": [
        {
          "internalType": "address",
          "name": "_user",
          "type": "address"
        }
      ],
      "name": "showDepositsOfUser",
      "outputs": [
        {
          "internalType": "uint256[]",
          "name": "",
          "type": "uint256[]"
        }
      ],
      "stateMutability": "view",
      "type": "function"
    },
    {
      "inputs": [
        {
          "internalType": "address",
          "name": "_token",
          "type": "address"
        },
        {
          "internalType": "uint256",
          "name": "amountIn",
          "type": "uint256"
        }
      ],
      "name": "swapExactInputSingle",
      "outputs": [
        {
          "internalType": "uint256",
          "name": "amountOut",
          "type": "uint256"
        }
      ],
      "stateMutability": "nonpayable",
      "type": "function"
    },
    {
      "inputs": [],
      "name": "swapRouter",
      "outputs": [
        {
          "internalType": "contract ISwapRouter",
          "name": "",
          "type": "address"
        }
      ],
      "stateMutability": "view",
      "type": "function"
    },
    {
      "inputs": [],
      "name": "taskTreasury",
      "outputs": [
        {
          "internalType": "contract ITaskTreasuryUpgradable",
          "name": "",
          "type": "address"
        }
      ],
      "stateMutability": "view",
      "type": "function"
    },
    {
      "inputs": [
        {
          "internalType": "uint256",
          "name": "_amount",
          "type": "uint256"
        },
        {
          "internalType": "address",
          "name": "_token",
          "type": "address"
        }
      ],
      "name": "withdrawFunds",
      "outputs": [],
      "stateMutability": "nonpayable",
      "type": "function"
    },
    {
      "inputs": [
        {
          "internalType": "bytes32",
          "name": "_transferId",
          "type": "bytes32"
        },
        {
          "internalType": "uint256",
          "name": "_amount",
          "type": "uint256"
        },
        {
          "internalType": "address",
          "name": "_asset",
          "type": "address"
        },
        {
          "internalType": "address",
          "name": "_originSender",
          "type": "address"
        },
        {
          "internalType": "uint32",
          "name": "_origin",
          "type": "uint32"
        },
        {
          "internalType": "bytes",
          "name": "_callData",
          "type": "bytes"
        }
      ],
      "name": "xReceive",
      "outputs": [
        {
          "internalType": "bytes",
          "name": "",
          "type": "bytes"
        }
      ],
      "stateMutability": "nonpayable",
      "type": "function"
    },
    {
      "inputs": [
        {
          "internalType": "address",
          "name": "recipient",
          "type": "address"
        },
        {
          "internalType": "uint32",
          "name": "destinationDomain",
          "type": "uint32"
        },
        {
          "internalType": "address",
          "name": "tokenAddress",
          "type": "address"
        },
        {
          "internalType": "uint256",
          "name": "amount",
          "type": "uint256"
        },
        {
          "internalType": "uint256",
          "name": "slippage",
          "type": "uint256"
        },
        {
          "internalType": "uint256",
          "name": "relayerFee",
          "type": "uint256"
        },
        {
          "internalType": "address",
          "name": "_destinationContractAddress",
          "type": "address"
        },
        {
          "internalType": "address",
          "name": "_toToken",
          "type": "address"
        }
      ],
      "name": "xTransfer",
      "outputs": [],
      "stateMutability": "payable",
      "type": "function"
    },
    {
      "stateMutability": "payable",
      "type": "receive"
    }
  ],
  "bytecode": "0x6101606040526000600555600060065560006007556064600c553480156200002657600080fd5b506040516200339538038062003395833981016040819052620000499162000220565b80338130816001600160a01b03166080816001600160a01b031681525050816001600160a01b031663573ea5756040518163ffffffff1660e01b8152600401602060405180830381865afa158015620000a6573d6000803e3d6000fd5b505050506040513d601f19601f82011682018060405250810190620000cc919062000274565b6001600160a01b0390811660c0526040516337b6269f60e21b8152908216600482015273c815db16d4be6ddf2685c201937905abf338f5d79063ded89a7c906024016040805180830381865afa1580156200012b573d6000803e3d6000fd5b505050506040513d601f19601f820116820180604052508101906200015191906200029b565b506001600160a01b0390811660a05283811660e0526080516040805163e60a321360e01b8152905191909216935063e60a3213925060048083019260209291908290030181865afa158015620001ab573d6000803e3d6000fd5b505050506040513d601f19601f82011682018060405250810190620001d1919062000274565b6001600160a01b0390811661010052948516610120525050501661014052600480546001600160a01b03191633179055620002de565b6001600160a01b03811681146200021d57600080fd5b50565b6000806000606084860312156200023657600080fd5b8351620002438162000207565b6020850151909350620002568162000207565b6040850151909250620002698162000207565b809150509250925092565b6000602082840312156200028757600080fd5b8151620002948162000207565b9392505050565b60008060408385031215620002af57600080fd5b8251620002bc8162000207565b60208401519092508015158114620002d357600080fd5b809150509250929050565b60805160a05160c05160e0516101005161012051610140516130166200037f600039600081816105090152818161182601526118f20152600081816105500152818161161a01526116d30152600081816105970152610ca80152600081816102de01528181610be10152610c71015260008181611ca90152611d73015260006102aa0152600081816105cb01528181611bf801526121c301526130166000f3fe6080604052600436106101e45760003560e01c8063a26056fc11610101578063de4b05481161009a578063e76575c01161006c578063e76575c0146105ed578063e8299ed31461061a578063f040976c1461063a578063fc17c8fa1461065a578063fd614f411461067057005b8063de4b05481461053e578063e23ed0b514610572578063e60a321314610585578063e70abe92146105b957005b8063ad5c4648116100d3578063ad5c4648146104c1578063b2a1449b146104e1578063c31c9c07146104f7578063caa4654d1461052b57005b8063a26056fc14610441578063a33f83f01461046e578063a5dc83d614610481578063a96e2423146104a157005b8063571733ab1161017e5780638900d7be116101505780638900d7be146103ce5780638da5cb5b146103e35780638e15f47314610403578063a035b1fe14610418578063a235efcb1461042e57005b8063571733ab146103435780635abf4323146103795780636b149d871461038c578063744bfe61146103ae57005b806328f150eb116101b757806328f150eb1461029857806346ee3c59146102cc57806356a370eb1461030057806356a90e021461033057005b806256d134146101ed578063089fe6aa146102205780631d34bee41461024a57806323cf8f9e1461028257005b366101eb57005b005b3480156101f957600080fd5b5061020d6102083660046124e7565b61069d565b6040519081526020015b60405180910390f35b34801561022c57600080fd5b506102366101f481565b60405162ffffff9091168152602001610217565b34801561025657600080fd5b5060035461026a906001600160a01b031681565b6040516001600160a01b039091168152602001610217565b34801561028e57600080fd5b5061020d60065481565b3480156102a457600080fd5b5061026a7f000000000000000000000000000000000000000000000000000000000000000081565b3480156102d857600080fd5b5061026a7f000000000000000000000000000000000000000000000000000000000000000081565b34801561030c57600080fd5b5061032061031b366004612513565b6106ce565b6040519015158152602001610217565b6101eb61033e3660046125a3565b610a20565b34801561034f57600080fd5b5061026a61035e366004612686565b6008602052600090815260409020546001600160a01b031681565b6101eb61038736600461269f565b610a9a565b34801561039857600080fd5b506103a1610af4565b6040516102179190612804565b3480156103ba57600080fd5b506101eb6103c9366004612513565b610bd6565b3480156103da57600080fd5b506103a1610d08565b3480156103ef57600080fd5b5060045461026a906001600160a01b031681565b34801561040f57600080fd5b5061020d610e07565b34801561042457600080fd5b5061020d600c5481565b6101eb61043c366004612853565b610e96565b34801561044d57600080fd5b5061046161045c366004612686565b610f02565b604051610217919061290e565b6101eb61047c36600461291d565b61101e565b34801561048d57600080fd5b506101eb61049c366004612686565b6111e2565b3480156104ad57600080fd5b506101eb6104bc3660046129bc565b611211565b3480156104cd57600080fd5b5060015461026a906001600160a01b031681565b3480156104ed57600080fd5b5061020d60005481565b34801561050357600080fd5b5061026a7f000000000000000000000000000000000000000000000000000000000000000081565b61032061053936600461269f565b61125d565b34801561054a57600080fd5b5061026a7f000000000000000000000000000000000000000000000000000000000000000081565b6101eb6105803660046129e0565b611603565b34801561059157600080fd5b5061026a7f000000000000000000000000000000000000000000000000000000000000000081565b3480156105c557600080fd5b5061026a7f000000000000000000000000000000000000000000000000000000000000000081565b3480156105f957600080fd5b5061060d6106083660046129bc565b611766565b6040516102179190612a6c565b34801561062657600080fd5b506101eb6106353660046129bc565b6117d2565b34801561064657600080fd5b5061020d6106553660046124e7565b61181e565b34801561066657600080fd5b5061020d60055481565b34801561067c57600080fd5b5061069061068b366004612aba565b61196a565b6040516102179190612c03565b600960205281600052604060002081815481106106b957600080fd5b90600052602060002001600091509150505481565b6000828152600860205260408120546001600160a01b038381169116146107325760405162461bcd60e51b8152602060048201526013602482015272556e617574686f72697a656420656e7469747960681b60448201526064015b60405180910390fd5b60005b600a548110156109795783600a828154811061075357610753612c16565b90600052602060002090600b02016000015403610967576000600a828154811061077f5761077f612c16565b90600052602060002090600b020160080160006101000a81548160ff02191690831515021790555042600a82815481106107bb576107bb612c16565b90600052602060002090600b0201600a0181905550600b600a82815481106107e5576107e5612c16565b6000918252602080832084546001818101875595855291909320600b9283029093018054919092029092019182558281015492820180546001600160a01b03199081166001600160a01b039586161790915560028083015490840180548316918616919091179055600380830154908401556004808301549084015560058083015490840180548316918616919091179055600680830154908401805490921694169390931790925560078083015490820155600880830154908201805460ff909216151560ff1990921691909117905560098083015490820155600a91820154908201558054829081106108dc576108dc612c16565b60009182526020808320600b9092029091018281556001810180546001600160a01b03199081169091556002820180548216905560038201849055600482018490556005820180548216905560068201805482169055600782018490556008808301805460ff1916905560098301859055600a90920184905587845291526040909120805490911690555b8061097181612c42565b915050610735565b506109848284611b09565b6006805490600061099483612c42565b9091555050600580549060006109a983612c5b565b90915550506040516e11195c1bdcda5d0811115311551151608a1b81526001600160a01b03831690600f0160408051918290038220600083524260208401529186917fa5a5bd98656058fc95e51c484e0ff0e44860d2f24b8b3be493e84bf30af1efb7910160405180910390a45060015b92915050565b60005b88811015610a8c57610a7a8c8c8c8c85818110610a4257610a42612c16565b905060200201358b8b86818110610a5b57610a5b612c16565b9050602002016020810190610a7091906129bc565b8a8a8a8a8a61101e565b80610a8481612c42565b915050610a23565b505050505050505050505050565b86600c5414610aca57600c546040516318050f9b60e11b8152600481019190915260248101889052604401610729565b610adb8a8a8a89898989898961101e565b600080610ae6611bf3565b91509150610a8c8282611c80565b6060600a805480602002602001604051908101604052809291908181526020016000905b82821015610bcd5760008481526020908190206040805161016081018252600b8602909201805483526001808201546001600160a01b0390811685870152600283015481169385019390935260038201546060850152600482015460808501526005820154831660a0850152600682015490921660c0840152600781015460e0840152600881015460ff1615156101008401526009810154610120840152600a01546101408301529083529092019101610b18565b50505050905090565b336001600160a01b037f00000000000000000000000000000000000000000000000000000000000000001614610c5a5760405162461bcd60e51b815260206004820152602360248201527f4f6e6c792066756e6473206f776e65722063616e2077697468647261772066756044820152626e647360e81b6064820152608401610729565b604051631c20fadd60e01b81526001600160a01b037f0000000000000000000000000000000000000000000000000000000000000000811660048301528281166024830152604482018490527f00000000000000000000000000000000000000000000000000000000000000001690631c20fadd90606401600060405180830381600087803b158015610cec57600080fd5b505af1158015610d00573d6000803e3d6000fd5b505050505050565b6004546060906001600160a01b03163314610d355760405162461bcd60e51b815260040161072990612c72565b600b80546040805160208084028201810190925282815292919060009084018215610bcd5760008481526020908190206040805161016081018252600b8602909201805483526001808201546001600160a01b0390811685870152600283015481169385019390935260038201546060850152600482015460808501526005820154831660a0850152600682015490921660c0840152600781015460e0840152600881015460ff1615156101008401526009810154610120840152600a01546101408301529083529092019101610b18565b600080600080600080600260009054906101000a90046001600160a01b03166001600160a01b031663feaf968c6040518163ffffffff1660e01b815260040160a060405180830381865afa158015610e63573d6000803e3d6000fd5b505050506040513d601f19601f82011682018060405250810190610e879190612cb9565b50919998505050505050505050565b60005b88811015610a8c57610ef08c8c8c8c85818110610eb857610eb8612c16565b905060200201358b8b8b87818110610ed257610ed2612c16565b9050602002016020810190610ee791906129bc565b8a8a8a8a61101e565b80610efa81612c42565b915050610e99565b610f0a61243f565b610f1261243f565b60005b600a548110156110175783600a8281548110610f3357610f33612c16565b90600052602060002090600b0201600001540361100557600a8181548110610f5d57610f5d612c16565b60009182526020918290206040805161016081018252600b9093029091018054835260018101546001600160a01b0390811694840194909452600281015484169183019190915260038101546060830152600481015460808301526005810154831660a0830152600681015490921660c0820152600782015460e0820152600882015460ff1615156101008201526009820154610120820152600a9091015461014082015291505b8061100f81612c42565b915050610f15565b5092915050565b6000871161106e5760405162461bcd60e51b815260206004820152601d60248201527f416d6f756e74206d7573742062652067726561746572207468616e20300000006044820152606401610729565b846001600160a01b0316866001600160a01b0316036110db5760405162461bcd60e51b8152602060048201526024808201527f46726f6d20616e6420546f20746f6b656e73206d7573742062652064696666656044820152631c995b9d60e21b6064820152608401610729565b6000841161112b5760405162461bcd60e51b815260206004820152601f60248201527f546f20636861696e206d7573742062652067726561746572207468616e2030006044820152606401610729565b61012c600061113a888a61181e565b60015490915061115b908b9087906001600160a01b0316848689898e611603565b6040517f4465706f7369742043524541544544202620455845435554454400000000000081526001600160a01b038c1690601a016040805191829003822060075460018452426020850152909290917fa5a5bd98656058fc95e51c484e0ff0e44860d2f24b8b3be493e84bf30af1efb7910160405180910390a45050505050505050505050565b6004546001600160a01b0316331461120c5760405162461bcd60e51b815260040161072990612c72565b600c55565b6004546001600160a01b0316331461123b5760405162461bcd60e51b815260040161072990612c72565b600180546001600160a01b0319166001600160a01b0392909216919091179055565b600780546000918261126e83612c42565b91905055508a60086000600754815260200190815260200160002060006101000a8154816001600160a01b0302191690836001600160a01b03160217905550600960008c6001600160a01b03166001600160a01b0316815260200190815260200160002060075490806001815401808255809150506001900390600052602060002001600090919091909150556005600081548092919061130e90612c42565b91905055506113258b8b8b8b8b8b8b8b8b8b611d9c565b50604080516101608101825260075481526001600160a01b038d8116602083018181528e8316848601908152606085018f8152608086018f81528e861660a088019081528e871660c0890190815260e089018f815260016101008b01818152426101208d018181526101408e01918252600a805494850181556000529c517fc65a7bb8d6351c1cf70c95a316cc6a92839c986682d98bc35f958f4883f9d2a8600b9094029384015598517fc65a7bb8d6351c1cf70c95a316cc6a92839c986682d98bc35f958f4883f9d2a9830180546001600160a01b0319908116928e1692909217905597517fc65a7bb8d6351c1cf70c95a316cc6a92839c986682d98bc35f958f4883f9d2aa830180548a16918d1691909117905595517fc65a7bb8d6351c1cf70c95a316cc6a92839c986682d98bc35f958f4883f9d2ab82015593517fc65a7bb8d6351c1cf70c95a316cc6a92839c986682d98bc35f958f4883f9d2ac85015591517fc65a7bb8d6351c1cf70c95a316cc6a92839c986682d98bc35f958f4883f9d2ad840180548716918a16919091179055517fc65a7bb8d6351c1cf70c95a316cc6a92839c986682d98bc35f958f4883f9d2ae8301805490951697169690961790925593517fc65a7bb8d6351c1cf70c95a316cc6a92839c986682d98bc35f958f4883f9d2af82015592517fc65a7bb8d6351c1cf70c95a316cc6a92839c986682d98bc35f958f4883f9d2b08401805460ff191691151591909117905592517fc65a7bb8d6351c1cf70c95a316cc6a92839c986682d98bc35f958f4883f9d2b183015591517fc65a7bb8d6351c1cf70c95a316cc6a92839c986682d98bc35f958f4883f9d2b29091015590516e11195c1bdcda5d0810d49150551151608a1b8152600f016040805191829003822060075460018452426020850152909290917fa5a5bd98656058fc95e51c484e0ff0e44860d2f24b8b3be493e84bf30af1efb7910160405180910390a45060019a9950505050505050505050565b60405163095ea7b360e01b81526001600160a01b037f0000000000000000000000000000000000000000000000000000000000000000811660048301526024820187905287919082169063095ea7b3906044016020604051808303816000875af1158015611675573d6000803e3d6000fd5b505050506040513d601f19601f820116820180604052508101906116999190612d09565b50604080516001600160a01b038b811660208301528481168284015282518083038401815260608301938490526345560b5d60e11b9093527f00000000000000000000000000000000000000000000000000000000000000001690638aac16ba908790611716908d9089908e9033908f908f908b90606401612d2b565b60206040518083038185885af1158015611734573d6000803e3d6000fd5b50505050506040513d601f19601f820116820180604052508101906117599190612d86565b5050505050505050505050565b6001600160a01b0381166000908152600960209081526040918290208054835181840281018401909452808452606093928301828280156117c657602002820191906000526020600020905b8154815260200190600101908083116117b2575b50505050509050919050565b6004546001600160a01b031633146117fc5760405162461bcd60e51b815260040161072990612c72565b600380546001600160a01b0319166001600160a01b0392909216919091179055565b600061184b837f000000000000000000000000000000000000000000000000000000000000000084612057565b60408051610100810182526001600160a01b0385811682526001548116602083019081526101f48385019081523060608501908152426080860190815260a08601898152600060c0880181815260e08901918252985163414bf38960e01b8152885188166004820152955187166024870152935162ffffff1660448601529151851660648501525160848401525160a4830152935160c48201529251811660e484015290917f00000000000000000000000000000000000000000000000000000000000000009091169063414bf38990610104016020604051808303816000875af115801561193e573d6000803e3d6000fd5b505050506040513d601f19601f820116820180604052508101906119629190612d86565b949350505050565b6060600080838060200190518101906119839190612d9f565b60015460035460405163095ea7b360e01b81526001600160a01b039182166004820152602481018d90529395509193501690819063095ea7b3906044016020604051808303816000875af11580156119df573d6000803e3d6000fd5b505050506040513d601f19601f82011682018060405250810190611a039190612d09565b50604080516002808252606082018352600092602083019080368337505060015482519293506001600160a01b031691839150600090611a4557611a45612c16565b60200260200101906001600160a01b031690816001600160a01b0316815250508281600181518110611a7957611a79612c16565b6001600160a01b0392831660209182029290920101526003541663791ac9478b60008488611aa942610e10612dce565b6040518663ffffffff1660e01b8152600401611ac9959493929190612de1565b600060405180830381600087803b158015611ae357600080fd5b505af1158015611af7573d6000803e3d6000fd5b50505050505050509695505050505050565b6001600160a01b0382166000908152600960205260409020548110611b2d57600080fd5b6001600160a01b03821660009081526009602052604090208054611b5390600190612e52565b81548110611b6357611b63612c16565b906000526020600020015460096000846001600160a01b03166001600160a01b031681526020019081526020016000208281548110611ba457611ba4612c16565b60009182526020808320909101929092556001600160a01b0384168152600990915260409020805480611bd957611bd9612e65565b600190038181906000526020600020016000905590555050565b6000807f00000000000000000000000000000000000000000000000000000000000000006001600160a01b031663b810c6366040518163ffffffff1660e01b81526004016040805180830381865afa158015611c53573d6000803e3d6000fd5b505050506040513d601f19601f82011682018060405250810190611c779190612e7b565b90939092509050565b73eeeeeeeeeeeeeeeeeeeeeeeeeeeeeeeeeeeeeeed196001600160a01b03821601611d6d5760007f00000000000000000000000000000000000000000000000000000000000000006001600160a01b03168360405160006040518083038185875af1925050503d8060008114611d12576040519150601f19603f3d011682016040523d82523d6000602084013e611d17565b606091505b5050905080611d685760405162461bcd60e51b815260206004820152601e60248201527f5f7472616e736665723a20455448207472616e73666572206661696c656400006044820152606401610729565b505050565b611d98817f000000000000000000000000000000000000000000000000000000000000000084612157565b5050565b604080516001600160a01b038c811660248301528b81166044830152606482018b9052608482018a905288811660a483015287811660c483015260e4820187905263ffffffff861661010483015261012482018590528316610144808301919091528251808303909101815261016490910182526020810180516001600160e01b0316635abf432360e01b1790528151600381840181815260c08301909452600093849291829190606080840190803683370190505081526040805160038082526080820190925260209092019190816020015b6060815260200190600190039081611e70575050905280518051919250600191600090611e9f57611e9f612c16565b60200260200101906003811115611eb857611eb8612ea0565b90816003811115611ecb57611ecb612ea0565b8152505060028160000151600181518110611ee857611ee8612c16565b60200260200101906003811115611f0157611f01612ea0565b90816003811115611f1457611f14612ea0565b8152505060038160000151600281518110611f3157611f31612c16565b60200260200101906003811115611f4a57611f4a612ea0565b90816003811115611f5d57611f5d612ea0565b905250604080516fffffffffffffffffffffffffffffffff4216602082015260058183015281518082038301815260609091019091528160200151600081518110611faa57611faa612c16565b6020026020010181905250611fca60408051602081019091526000815290565b8160200151600181518110611fe157611fe1612c16565b602002602001018190525061200160408051602081019091526000815290565b816020015160028151811061201857612018612c16565b6020026020010181905250600061204530848473eeeeeeeeeeeeeeeeeeeeeeeeeeeeeeeeeeeeeeee6121a9565b9e9d5050505050505050505050505050565b604080516001600160a01b038481166024830152604480830185905283518084039091018152606490920183526020820180516001600160e01b031663095ea7b360e01b17905291516000928392908716916120b39190612eb6565b6000604051808303816000865af19150503d80600081146120f0576040519150601f19603f3d011682016040523d82523d6000602084013e6120f5565b606091505b509150915081801561211f57508051158061211f57508080602001905181019061211f9190612d09565b6121505760405162461bcd60e51b8152602060048201526002602482015261534160f01b6044820152606401610729565b5050505050565b604080516001600160a01b038416602482015260448082018490528251808303909101815260649091019091526020810180516001600160e01b031663a9059cbb60e01b179052611d6890849061224a565b604051633323b46760e01b81526000906001600160a01b037f00000000000000000000000000000000000000000000000000000000000000001690633323b467906121fe908890889088908890600401612f27565b6020604051808303816000875af115801561221d573d6000803e3d6000fd5b505050506040513d601f19601f820116820180604052508101906122419190612d86565b95945050505050565b600061229f826040518060400160405280602081526020017f5361666545524332303a206c6f772d6c6576656c2063616c6c206661696c6564815250856001600160a01b031661231c9092919063ffffffff16565b805190915015611d6857808060200190518101906122bd9190612d09565b611d685760405162461bcd60e51b815260206004820152602a60248201527f5361666545524332303a204552433230206f7065726174696f6e20646964206e6044820152691bdd081cdd58d8d9595960b21b6064820152608401610729565b6060611962848460008585600080866001600160a01b031685876040516123439190612eb6565b60006040518083038185875af1925050503d8060008114612380576040519150601f19603f3d011682016040523d82523d6000602084013e612385565b606091505b5091509150612396878383876123a1565b979650505050505050565b60608315612410578251600003612409576001600160a01b0385163b6124095760405162461bcd60e51b815260206004820152601d60248201527f416464726573733a2063616c6c20746f206e6f6e2d636f6e74726163740000006044820152606401610729565b5081611962565b61196283838151156124255781518083602001fd5b8060405162461bcd60e51b81526004016107299190612c03565b6040518061016001604052806000815260200160006001600160a01b0316815260200160006001600160a01b03168152602001600081526020016000815260200160006001600160a01b0316815260200160006001600160a01b031681526020016000815260200160001515815260200160008152602001600081525090565b6001600160a01b03811681146124d457600080fd5b50565b80356124e2816124bf565b919050565b600080604083850312156124fa57600080fd5b8235612505816124bf565b946020939093013593505050565b6000806040838503121561252657600080fd5b823591506020830135612538816124bf565b809150509250929050565b60008083601f84011261255557600080fd5b50813567ffffffffffffffff81111561256d57600080fd5b6020830191508360208260051b850101111561258857600080fd5b9250929050565b803563ffffffff811681146124e257600080fd5b60008060008060008060008060008060006101208c8e0312156125c557600080fd5b6125cf8c356124bf565b8b359a506125e060208d01356124bf565b60208c0135995067ffffffffffffffff8060408e0135111561260157600080fd5b6126118e60408f01358f01612543565b909a50985060608d013581101561262757600080fd5b506126388d60608e01358e01612543565b909750955061264960808d016124d7565b945060a08c0135935061265e60c08d0161258f565b925060e08c013591506126746101008d016124d7565b90509295989b509295989b9093969950565b60006020828403121561269857600080fd5b5035919050565b6000806000806000806000806000806101408b8d0312156126bf57600080fd5b8a356126ca816124bf565b995060208b01356126da816124bf565b985060408b0135975060608b0135965060808b01356126f8816124bf565b955060a08b0135612708816124bf565b945060c08b0135935061271d60e08c0161258f565b92506101008b013591506101208b0135612736816124bf565b809150509295989b9194979a5092959850565b80518252602081015161276760208401826001600160a01b03169052565b50604081015161278260408401826001600160a01b03169052565b50606081015160608301526080810151608083015260a08101516127b160a08401826001600160a01b03169052565b5060c08101516127cc60c08401826001600160a01b03169052565b5060e081015160e0830152610100808201516127eb8285018215159052565b5050610120818101519083015261014090810151910152565b6020808252825182820181905260009190848201906040850190845b8181101561284757612833838551612749565b928401926101609290920191600101612820565b50909695505050505050565b60008060008060008060008060008060006101208c8e03121561287557600080fd5b61287f8c356124bf565b8b359a5061289060208d01356124bf565b60208c0135995067ffffffffffffffff8060408e013511156128b157600080fd5b6128c18e60408f01358f01612543565b909a5098506128d260608e016124d7565b97508060808e013511156128e557600080fd5b506128f68d60808e01358e01612543565b909650945060a08c0135935061265e60c08d0161258f565b6101608101610a1a8284612749565b60008060008060008060008060006101208a8c03121561293c57600080fd5b8935612947816124bf565b985060208a0135612957816124bf565b975060408a0135965060608a013561296e816124bf565b955060808a013561297e816124bf565b945060a08a0135935061299360c08b0161258f565b925060e08a013591506101008a01356129ab816124bf565b809150509295985092959850929598565b6000602082840312156129ce57600080fd5b81356129d9816124bf565b9392505050565b600080600080600080600080610100898b0312156129fd57600080fd5b8835612a08816124bf565b9750612a1660208a0161258f565b96506040890135612a26816124bf565b9550606089013594506080890135935060a0890135925060c0890135612a4b816124bf565b915060e0890135612a5b816124bf565b809150509295985092959890939650565b6020808252825182820181905260009190848201906040850190845b8181101561284757835183529284019291840191600101612a88565b634e487b7160e01b600052604160045260246000fd5b60008060008060008060c08789031215612ad357600080fd5b86359550602087013594506040870135612aec816124bf565b93506060870135612afc816124bf565b9250612b0a6080880161258f565b915060a087013567ffffffffffffffff80821115612b2757600080fd5b818901915089601f830112612b3b57600080fd5b813581811115612b4d57612b4d612aa4565b604051601f8201601f19908116603f01168101908382118183101715612b7557612b75612aa4565b816040528281528c6020848701011115612b8e57600080fd5b8260208601602083013760006020848301015280955050505050509295509295509295565b60005b83811015612bce578181015183820152602001612bb6565b50506000910152565b60008151808452612bef816020860160208601612bb3565b601f01601f19169290920160200192915050565b6020815260006129d96020830184612bd7565b634e487b7160e01b600052603260045260246000fd5b634e487b7160e01b600052601160045260246000fd5b600060018201612c5457612c54612c2c565b5060010190565b600081612c6a57612c6a612c2c565b506000190190565b6020808252601390820152724f776e6572207265736572766564206f6e6c7960681b604082015260600190565b805169ffffffffffffffffffff811681146124e257600080fd5b600080600080600060a08688031215612cd157600080fd5b612cda86612c9f565b9450602086015193506040860151925060608601519150612cfd60808701612c9f565b90509295509295909350565b600060208284031215612d1b57600080fd5b815180151581146129d957600080fd5b63ffffffff881681526001600160a01b0387811660208301528681166040830152851660608201526080810184905260a0810183905260e060c08201819052600090612d7990830184612bd7565b9998505050505050505050565b600060208284031215612d9857600080fd5b5051919050565b60008060408385031215612db257600080fd5b8251612dbd816124bf565b6020840151909250612538816124bf565b80820180821115610a1a57610a1a612c2c565b600060a082018783526020878185015260a0604085015281875180845260c086019150828901935060005b81811015612e315784516001600160a01b031683529383019391830191600101612e0c565b50506001600160a01b03969096166060850152505050608001529392505050565b81810381811115610a1a57610a1a612c2c565b634e487b7160e01b600052603160045260246000fd5b60008060408385031215612e8e57600080fd5b825191506020830151612538816124bf565b634e487b7160e01b600052602160045260246000fd5b60008251612ec8818460208701612bb3565b9190910192915050565b600081518084526020808501808196508360051b8101915082860160005b85811015612f1a578284038952612f08848351612bd7565b98850198935090840190600101612ef0565b5091979650505050505050565b6001600160a01b038516815260806020808301829052600091612f4c90840187612bd7565b838103604080860191909152865181835280519183018290528301906000906060840190825b81811015612fab5784516004808210612f9857634e487b7160e01b865260218152602486fd5b5083529386019391860191600101612f72565b505084890151925083810385850152612fc48184612ed2565b9550505050505061224160608301846001600160a01b0316905256fea2646970667358221220f19531e44efdd2ceb56b82da32c1a626423574994995d92d64c4729d6f5e78bc64736f6c63430008110033",
  "linkReferences": {},
  "deployedLinkReferences": {}
}